:020000040040BA
:10400000F0FF4520B937450059384500391B4500B8
:10401000E51A4500011B45001D1B4500000000007E
:10402000000000000000000000000000C1ED44009E
:10403000593845000000000061EE4400C5EE440020
:10404000593845005938450059384500D541400098
:104050005938450059384500593845000149420052
:104060001149420000000000B59A4400C19A440082
:10407000CD9A4400514942006149420071494200D1
:10408000D99A4400000000005938450059384500CD
:10409000994540005938450059384500FDE744002E
:1040A00051E84400593845000000000000000000BD
:1040B00000000000BD994400000000005938450090
:1040C000593845005938450031A344005938450056
:1040D000593845005938450059384500000000005E
:1040E000C999440059384500814942005938450072
:1040F000214942003149420041494200000000008C
:1041000000000000000000005DE844005938450050
:1041100059384500000000000000000000000000C9
:104120005938450059384500794440005938450010
:1041300059384500000000000000000059384500D3
:10414000960FF9A7177D4E99DB53A272E7C3E1E5FD
:10415000960FF9A7177D4E99DB53A272E7C3E1E5ED
:10416000000000010000000110B5054C237833B9B0
:10417000044B13B10448AFF300800123237010BD3A
:10418000C01B402000000000782948000C4B43B1C0
:104190000C480D4910B5AFF300800C48036823B9F3
:1041A00010BD0A48036833B97047094B002BF7D09C
:1041B000BDE810401847064B002BF5D0184700BF4C
:1041C0000000000078294800C41B402078294800DE
:1041D0000000000008B5054BDB68DB0705D54DF096
:1041E0000FFC034A13680133136008BD30180E40FA
:1041F000DC1B4020124B10B51C68FCB901221A6070
:104200004AF058FB21460F484EF044FD03210D486B
:104210004EF034FD21460B484EF05CFD4FF48031EA
:1042200008484EF04DFD084B08220849C3F880208D
:10423000C3F8802183F803431A600C6010BD00BFEF
:10424000E01B402030180E4000E100E0DC1B402065
:1042500084B0084B9A6801929968019A9142F9D109
:10426000054B1B680393019B0293DDE9020104B037
:10427000704700BF30180E40DC1B4020002833D0B0
:104280001A4BF0B58BB09A6800929968009A9142E7
:10429000F9D1DFF85CE00A21144BDEF80020A0FB26
:1042A00001010792009A0692DDE90645CDE9024533
:1042B000CDE904019A6801929968019A9142F9D175
:1042C000DEF800200992019A0892DDE90801DDE993
:1042D0000267DDE90445801B61EB0701A94208BFC5
:1042E000A042E7D30BB0F0BD704700BF30180E40BE
:1042F000DC1B40200000000000B5114B85B09A681F
:1043000001929968019A9142F9D10E4B1B6803936F
:10431000019B0293DDE902016DF084F89FED067BBD
:1043200041EC160B26EE077B51EC170B6DF018F9DC
:1043300005B05DF804FB00BF000000000070B73F4F
:1043400030180E40DC1B402000B5114B85B09A6838
:1043500001929968019A9142F9D10E4B1B6803931F
:10436000019B0293DDE902016DF05CF89FED067B95
:1043700041EC160B26EE077B51EC170B6DF0F0F8B5
:1043800005B05DF804FB00BF0000000060E356408C
:1043900030180E40DC1B402000B50F4B85B09A68EA
:1043A00001929968019A9142F9D10C4B1B680393D1
:1043B000019B0293DDE902016DF034F89FED040BDF
:1043C00041EC170B27EE000B05B05DF804FB00BFB6
:1043D000000000000000183F30180E40DC1B402099
:1043E000F0B5164DD5F8807007F0070EC7F34E36BE
:1043F000C7F3C9070EF1040EB7FA87F303F01F03E2
:10440000BFF34F8F4FF0FF3406FA0EF007FA03FCAC
:1044100004FA0EFE9C4062463B4640EA0201013B24
:104420002244C5F87412591CF7D1013E7044731C24
:10443000F1D1BFF34F8FBFF36F8FF0BD00ED00E000
:1044400080B582B000AF78603960FFF7C9FF012204
:104450003B689A407B68DA6100BF0837BD4680BD83
:1044600080B483B000AF78607B685B6A18460C3715
:10447000BD465DF8047B70471FF068BB2DE9F8432B
:10448000051DDFF89CE0064688467446DFF89490E8
:104490000FCD07460FC427F07F4795E80F00CEF8F1
:1044A000007084E80F007246316848464EF080FC88
:1044B000736A33F07F4307D13268002009EB821919
:1044C000C9F86C30BDE8F88308F1100300200F2113
:1044D00028F00302C8F80030736843F07063C8F82E
:1044E0000430B368C8F80830F368C8F8100000203A
:1044F000C8F80C30736AC3F31703C8F81430B36AF2
:10450000C8F81830F36AC8F81C30336809EB831315
:10451000D966336809EB8319C9F86820BDE8F883C8
:10452000F41B4020008007403A204EF029BB00BF1A
:104530000F2811D838B50124054684400748FFF7F5
:104540008FFF10EA0403F9D1054A29460348535561
:10455000FFF776FF002038BD00207047008007403D
:10456000E41B40200F2801D90020704710B50446F5
:10457000BFF34F8F0648FFF773FF0123054AA3409F
:1045800003420CBF012300231355105DC0B210BDC0
:1045900000800740E41B402038B5254C2068056AA0
:1045A0006A0702D594F8753053B9AB0707D594F86C
:1045B0007630022B18D094F87630032B24D038BDF7
:1045C000042128F041F994F87530022BEDD12268CE
:1045D0000021136843F002031360236894F87420E9
:1045E0005A6384F87510E0E722680321136843F0EA
:1045F00002031360226894F87C30126B234484F821
:10460000761083F87E2138BD2068022194F87C3032
:10461000026B234483F87F2128F016F994F87C205C
:104620000449A06F6DF023FF002384F87630C6E7BD
:104630007C014020FC024020704700BF704700BF53
:10464000704700BF704700BF704700BF704700BF92
:10465000704700BF704700BF10B5044620F098F9BE
:10466000204610BD10B4044C002281600460027129
:104670005DF8044B704700BF409A470070B553780F
:1046800084B014460646013B0D46042B14D8DFE8DF
:1046900003F01F3D0352150001A960683AF0ECF9E0
:1046A000042809D1B068284B0268D6689E4203D01E
:1046B000221D2946019BB04704B070BD8068234A83
:1046C00003685B699342F7D0221D29469847F3E7B8
:1046D000A178231D162201EB81000191039301EBC8
:1046E0004001029203EB81018B4205D022782C33EA
:1046F00003F81B2C9942F9D1B068154A03685B682E
:104700009342D9D0294601AA9847D5E701A9606804
:104710003AF0B2F901381F28CED801220D4B02FA27
:1047200000F00340002BC7D0B0680B4B02689668BE
:104730009E42C1D0BCE78068084A03681B69934267
:10474000C2D104B070BD00BF4146400049464000A0
:1047500039464000818000803D464000454640008B
:104760002DE9F0411F46037984B00446022B0D4623
:10477000904632D002214E4B382200F110060171D2
:1047800004210193304604F6D873009200222FF0E2
:104790001FF80023C4F8303BC4F8C88A0021C4F8CD
:1047A000347B30462FF05CFD01300A2812D8DFE858
:1047B00000F02211334B6811731111111700A0681A
:1047C0003C4B026894689C4204D006F110022946D2
:1047D000039BA04704B0BDE8F08100F11006DBE7C1
:1047E000A068354A03689B699342F3D004F5F472DC
:1047F00029469847EEE7A068304B0268D6699E428A
:10480000E8D0D4F8C84A29464FF0FF33A578E278BB
:1048100002EB0522B047DDE7D4F864342C21D4F84C
:104820005C2401FB0232934203D05D742C339A4224
:10483000FBD1A068224A03685B689342CAD004F2A5
:104840005C4229469847C5E703A9D4F8A8043AF082
:1048500013F901381F28BDD801231A4A03FA00F0C2
:104860000240002AABD10307B4D5A068164B0268FA
:10487000D6689E42AED004F5A0722946039BB0478D
:10488000A8E7A068114A03681B699342A2D004F20A
:10489000AC42294698479DE7A0680D4A03685B69CA
:1048A000934297D004F58D622946984792E700BF5E
:1048B000141C40203D4640004D46400051464000FB
:1048C0003946400081800080414640004546400016
:1048D000494640002DE9F0411D46037982B0044667
:1048E000032B0E46904677D0032100F110073823A2
:1048F00000F6D87201713846002130F049F90023E2
:10490000C4F8C03FEB1E3E4A04F12005C4F8CC8F2A
:10491000C4F8C83F0FCA85E80F00384633F0FCFAE8
:104920000130062821D8DFE800F044202E042020A2
:10493000230001A9D4F850053AF09EF801381F2849
:1049400013D801232F4A03FA00F00240002A4BD16A
:1049500003070AD5A0682C4B0268D5689D4204D095
:1049600004F5B6723146019BA84702B0BDE8F0815C
:10497000A068264A03685B699342F6D004F5027288
:1049800031469847F1E7A36C2C21226C01FB0232DF
:10499000934203D05E742C339A42FBD1A0681C4A28
:1049A00003685B6893421AD10023236402B0BDE818
:1049B000F0811821D4F8CC0F0C223AF073F9A368D7
:1049C00014491C68E4698C42CFD00246314618462F
:1049D0004FF0FF33A047C8E700F1100792E73146D8
:1049E00004F140029847DFE7A0680B4B0268956826
:1049F0009D42BAD004F14C023146019BA847B4E76E
:104A0000805440208180008041464000494640005B
:104A100039464000514640003D46400010B5064C26
:104A2000206828B103685B6898470023236010BDA5
:104A3000BDE810401AF080B9F0CC40202DE9F843D1
:104A4000DFF810810446DFF810E10D46D8F8003099
:104A5000D3E91401D3E91267D3E91623CEF8146021
:104A6000CEF81870CEF81C00CEF82010CEF8242016
:104A7000CEF8283042F088FF1AF0F2FE002855D117
:104A8000304E1AF0E5FE40B12F49726B0B6842F4CC
:104A9000803243F0004372630B60D8F80030DA686C
:104AA000F2611A6932625B6C13F4802723D144F6F9
:104AB0007810DFF8A8801FF073FF814601F086F9B7
:104AC000224B09F54870C9F8003014F0FDFF89F851
:104AD0000C70C8F800904846336ADBB94460204641
:104AE00042F096FF15B1D8F800309D60184B0022B7
:104AF0001A60BDE8F8834FF44870DFF860801FF05B
:104B00004FFF074601F062F9C8F800703846336A73
:104B1000002BE3D003681B699847336AF269D8F821
:104B20000000934228BF1346F361D7E70649054EBC
:104B30000A68736B42F0004243F400330A60736307
:104B40009FE700BFF42A4520E42E4520A89C47009B
:104B5000081945205420452014134520F0CC40204E
:104B60000A4A0B4B106870B5046882B0094E0A4DB2
:104B70001A6AD969094B8DE86000A468A04718B18A
:104B8000074B022201201A6002B070BDF0CC402019
:104B9000F42A4520D8264520C4124520840E4520FD
:104BA000081945202E4A136833B3012B10B50AD1DA
:104BB000FFF7D6FF2B4BD3F8A4301BB12A4B0122B1
:104BC0001B681A7310BD0323274C136000283BD0C9
:104BD00001222649206801F03FFA254A2549136839
:104BE000096A01338B421360E4D320680021036813
:104BF00011605B6E9847DDE71C4B1868596841EC03
:104C0000170BB5EE407BF1EE10FA13D01A4B186873
:104C1000596841EC170BB5EE407BF1EE10FA09D064
:104C2000164B1868596841EC170BB5EE407BF1EE56
:104C300010FA12D10B4BD3F8A43023B10A4B012246
:104C40001B681A737047704720680D4901F006FB16
:104C5000206803685B6E9847ACE701231360E9E7BF
:104C60000819452014224520F0CC4020840E452010
:104C7000EC674020F42A4520C4124520D826452060
:104C8000742045202DE9F041824D0026824B286892
:104C90001E600368814C9B699847286801F012FBED
:104CA0006378002B40F0BA802378002B40F0AD8071
:104CB000237A002B40F0A180637A002B40F0938090
:104CC000A37A002B7ED1E37A002B6CD1237B002BBF
:104CD0005BD1637B002B4AD1A37B002B39D1704E73
:104CE000336873B96F4B1A6892F84030022B00F0AA
:104CF000AB80286803689B6E98470123A374BDE8C6
:104D0000F081684F3A68516C11F48058ECD1652BF2
:104D100000F08B8000F2A080581E0128E4D81B020E
:104D200021F4E06103F4E0630B4353644DF0A6FC0F
:104D3000286831680368D3F8AC3098476FF03703C0
:104D400086F8018086F8028086F803803A6833701E
:104D5000CAE729680020544E326DA0730846736D6F
:104D60000E685249F66B43EC102BB047B7E7296841
:104D700000204D4E326D60730846736D0E684C49CD
:104D8000766B43EC102BB047A6E729680020464E0F
:104D9000326D20730846736D0E684649366B43ECDE
:104DA000102BB04795E7444B0021286801221E6D67
:104DB000E17203F15C015F6D036847EC106BDB6A25
:104DC000984783E7384B0022D5F800E01E6D03F1C9
:104DD0005C01A27270465F6DDEF8003047EC106B2C
:104DE000DB6A98476FE72B68002001223249607226
:104DF00018461B689B6A984762E7002228682A4980
:104E0000227203689B6A984756E72B6800222B4959
:104E1000227018461B68DB69984749E72868667066
:104E2000036827491B6A98473EE728680368D3F858
:104E3000B430984786F8008086F8018086F80280B2
:104E400086F803803A684FE728684FF0FF3103681F
:104E5000D3F8B03098474CE7C82B7FF445AF736860
:104E6000DFED187A07EE103AB4EEE77AF1EE10FAB9
:104E7000FFF63AAF144B1B68002B3FF435AF6FF0D1
:104E8000360386F8018086F8028086F80380337046
:104E90002AE700BFF0CC4020EC6740201C2E4520C4
:104EA0000822452054204520582C4520F40F452049
:104EB000542545201C23452054174520C412452065
:104EC000D82645200000C842E42E4520F0B5B04C5D
:104ED00089B0A37C13B1002840F052812379002BC4
:104EE00040F0E780637973B1AA490025AA4B5C22A0
:104EF0000E6D4F6D1946A9481E655F6565716DF0B1
:104F0000B6FA01236372A3799BB1A54B0021A54D8D
:104F100001261868A17105F15C025968E8652966E7
:104F20009F68DD68186959699760D56010615161A3
:104F3000A672E3799BB19C4B0021984D012618681D
:104F4000E17105F15C025968E86529669F68DD68D2
:104F5000186959699760D56010615161E672934A8A
:104F600040F2BA71924B12681B689B1A03F2DD3350
:104F70008B427AD88F4B19688A4229D08E491A60A1
:104F80000B68D3F8C0301D0700F12C818B4B9B6858
:104F900013F0806300F03481894B01255C2287493E
:104FA00080481D706DF063FA25720025854A04AEB5
:104FB0005C23106836210195009502967F4A06957C
:104FC00002F0EEFB069B1BB10322314630469847A8
:104FD000237DF3B17C4B00217C4A03F12000217535
:104FE0001F68103353F80C6C103253F8085C53F8F8
:104FF000041C834242F8107C42F80C6C42F8085CB6
:1050000042F8041CECD1186801215B681060536001
:105010002173637D002B40F09C80A37DF3B16C4B2A
:1050200000216C4A03F12000A1751F68103353F86A
:105030000C6C103253F8085C53F8041C834242F89D
:10504000107C42F80C6C42F8085C42F8041CECD16D
:10505000186801215B68106053606173E37D002B69
:1050600061D1237C2BB909B0F0BD554B00221A70D9
:10507000AEE7594A0025534904AE536808680F212A
:1050800003EB4303019500959B00029625740833BA
:105090000695B3F5187F28BF4FF4187302F080FB14
:1050A000069B002BDFD0032231463046984709B0DB
:1050B000F0BD0025434A04AE5C231068062101952B
:1050C00000950296334A2571069502F069FB069B0E
:1050D0001BB10322314630469847394B1B78002BD1
:1050E0007FF400AF2F4B5C222A4918466DF0BFF9C0
:1050F000314A03461268D2F8C020D10703D581682F
:1051000041F48011816017070AD532499A68496ACB
:1051100042F480000E01986002D542F004629A6069
:1051200001232372DEE60025264A04AEB023106870
:105130005C21019500950296284AE575069502F0D6
:105140002FFB069B002B8CD003223146304698471C
:1051500087E700251B4A04AEB0231068162101958D
:10516000009502961E4A6575069502F019FB069B8E
:10517000002B3FF452AF03223146304698474CE7AC
:10518000104A00231068A37403F0D2F8A6E600BF0B
:105190001C2E4520842D45204818452054174520B5
:1051A000E02D4520582C4520A418452018234520E3
:1051B0000419452090544020542045207C1045205F
:1051C00094544020F0CC4020E81C45201C2345206E
:1051D0004413452054254520942845207413452028
:1051E000E0274520084A094B9168586A41F480033A
:1051F000000193607FF5CCAE41F004639360C7E695
:10520000034A1370D1E600BF7C1045205425452089
:105210009454402042F098B938B54FF416510446E2
:10522000002530220163E83000F8E05C294600F8F0
:10523000DF5CA572E5602575A561E56125626562A3
:1052400084F8345084F83550A563E56384F86550DC
:10525000C4F8D050C4F8D450C4F8D850C4F8DC50C6
:10526000E56284F8E4506DF027F90423C4F8205176
:105270002946C4F8245104F5A070C4F828517022BE
:1052800084F82C51C4F83051C4F83451C4F8385162
:10529000C4F8E050257084F8B0316DF00DF9204667
:1052A00038BD00BF2DE9F04F87B000F5A0761D4650
:1052B00004469DF84430174630467022BDF84080C1
:1052C00005939DF848909DF84CA09DF850B06DF066
:1052D000CEF8022D84F8B05113D005984346CDF88E
:1052E0000CB03A4600903146CDF808A004F1080011
:1052F000CDF804901AF00AFB0120207007B0BDE839
:10530000F08F3A4631464FF4612304F1E00000F09B
:1053100077FB0120207007B0BDE8F08F08B50021B1
:10532000034604207022197083F8B00103F5A070C1
:105330006DF0C2F808BD00BF037833B190F8B0310A
:10534000022B03D008301BF04FB87047E03000F05C
:105350006BBB00BF08B503783BB190F8B031022BAE
:1053600003D008301BF050F808BD4FF0FF3008BDE7
:10537000037833B190F8B031022B02D1E03000F065
:105380005BBB4FF0FF307047037803B970470830BC
:105390001AF0A6BF037803B9704708301AF0ECBFC3
:1053A00003780BB113230372704700BF10B5054C8F
:1053B00020464EF04BFB2046034A0449BDE810400E
:1053C0004EF030BB9854402078014020653B4500AA
:1053D000002851D06822F8B50D46002104466DF032
:1053E0006BF8274BA5621B68D3F884304DB1C3F32B
:1053F000C243013B042B3BD8DFE803F02825221FE2
:105400000600C3F30243F4E70223E3621D481E498A
:105410001E4A1F4B1F4F204E206061601F482049CD
:10542000A26023621F4A204BE760266160616162CF
:10543000A261E3616DB10020F8BD0123E362E5E7FD
:105440000023E362E2E70523E362DFE70423E3628C
:10545000DCE74FF4004115484DF0A6FA4FF48031D7
:1054600012484DF0A1FAA06A00F0B8F92846F8BD3C
:105470004FF0FF30E062F8BD4FF0FF30704700BFE3
:1054800054204520B15440000D55400011554000B6
:10549000315540002155400039554000D15740005A
:1054A00041554000D55740000959400000140E40B6
:1054B0000E4B80221A6021B15A631A61C3F8A020F2
:1054C00070475A61C3F8A0201A66C3F890205A6545
:1054D0005A62C3F88020196F21F080011967596F53
:1054E00021F080015967C3F8B420704700140E40C2
:1054F000054B042200201A649FED010B00F0FCB85C
:10550000000000000000000000C00040704700BF25
:10551000C06A0022014B1FF0C3B800BF40134520F2
:10552000002A02DDC06A1EF027B80020704700BFC5
:10553000C06A1EF0F3BC00BFC06A1DF08DBE00BF84
:1055400038B5B0F862309BB2002B00F09D805C4D06
:1055500004462B68D3F8843013F4604F40F09580F4
:1055600094ED126B94ED0E7BBDEEC66BBDEEC77B6A
:1055700016EE103A17EE102A934200F085800020B4
:10558000B7EE000BD4E91223C4E90E2300F0B4F8FF
:105590000120B4F860309BB2002B75D00022A4F833
:1055A0006020A4F86220E36DA16D5B1AB3F5747FEF
:1055B0006AD272B6BFF35F8F424B01211A7094ED2D
:1055C000125B94ED147B1970BFF35F8F62B62B688A
:1055D000D3F8B830002B57D035EE475B07EE903A42
:1055E0009FED397AF8EE677ADFED384A94ED0C6B6F
:1055F00067EE877A35EE466BB7EEC66B86EE277A96
:10560000F0EEC77AF4EEE47AF1EE10FA01D4002855
:1056100038D0DFED2F7AB7EE004B2E4A27EE277AEF
:105620002D4B9FED2E6AD3ED003AB7EEC77A2C4989
:10563000B7EEE31A2B4823EE866A0B682A4D43F037
:105640004003B7EEC66A0B6092ED002B9FED1A0B7C
:1056500085ED005BA2EE007B34EE474B27EE012B7D
:1056600024EE014B82ED007B80ED002BB4EEC64BA7
:10567000F1EE10FA10D51D4B16EE102A5A6216EEF6
:10568000902A9A6284ED0C5B38BDC3F38153022BE0
:105690003FF466AF00207CE79FED156A23EE866A33
:1056A000B7EEC66AB4EEC64BF1EE10FAD8BFB0EE54
:1056B000446BE0E7AFF30080000000606666EE3FF9
:1056C00054204520001940206F12833A6F12033B8B
:1056D000CDCC4C3DD8674020FC674020A4707D3F76
:1056E00040134520E0674020D0674020F42A452041
:1056F000AE47813F0000000038B52DED028BB0EEC3
:10570000408B72B6BFF35F8F0023274A274C284D8A
:10571000984218BF14462B70FEF73EFE9FED207B8B
:1057200030EE470B30EE080B84ED040BFEF7E4FD82
:10573000204A0123E06112682384526CD00619D4F8
:105740001D4A1268D10615D51C4A926802F4F85217
:10575000B2F5406F16D01A4A1268520112D4194A93
:105760000424102018495463136310630B68174A0C
:105770003C33536001232B70BFF35F8F62B6BDECE7
:10578000028B38BD0F4B04240F4A012010215C63AB
:105790001863596313680D4A03F5C8735360E9E74A
:1057A000314514EEF032BE3E48554020E0544020D2
:1057B000001940205420452040134520582C4520F6
:1057C000E42E452000140E4004194520741645208F
:1057D000FEF792BD0846FEF751BD00BF414B1B6866
:1057E000D3F88420C2F342333BB3C2F38152022A7E
:1057F00023D0013BF0B583B0052B1CD8DFE803F0C4
:10580000625346431E030A204DF0BAF93649782305
:10581000022200910A21354844F02EF90221334832
:105820004DF0BEF801220A21304844F05BF9304BBC
:105830004FF480621A6003B0F0BD70472D4D2E4EBC
:105840002E4C294F28684DF09BF93268296878233F
:105850002B4D2068009744F00FF9316820684DF017
:105860009FF8206895F90010012244F03BF995F962
:10587000003001221E4903F01F005B09824041F8FD
:10588000232003B0F0BD1B4D1E4ED9E70A204DF07A
:1058900077F915497823102200910A21134844F022
:1058A000EBF81021BBE70A204DF06AF90E49782386
:1058B0004FF4803200910A210C4844F0DDF84FF497
:1058C0008031ACE70A204DF05BF9074978234FF4AB
:1058D000004200910A21054844F0CEF84FF40041FF
:1058E0009DE700BF54204520F1544000000E0E40BB
:1058F00000E100E0E0DF4520DCDF4520E8DF452077
:10590000D8DF4520D4DF4520F8B5C36A012B46D93E
:10591000042B374C4FF08007064614BF4FF48035F8
:105920004FF40045676300293AD1324E01203563B8
:10593000FEF7A4FC3560EB437561C6F8A050142057
:105940003566C6F8905075657562C6F88050326F3E
:105950001A403267726F13407367C6F8B450FEF78F
:105960008DFC276067610A20C4F8A0702766C4F820
:10597000907067656762C4F88070236F23F08003BE
:105980002367636F23F080036367C4F8B470FEF786
:1059900075FC042101221023216322632363F8BDD7
:1059A000144B0121102204202063142061636263E0
:1059B0001D605D631D61C3F8A050FEF75FFC2763A7
:1059C0004FF47A70FEF75AFC1420FEF757FC0A4B8E
:1059D00000224FF41651F06A1EF062FEF06A0222B5
:1059E00006491DF0C9FD0A20BDE8F840FEF746BC97
:1059F00000140E40000E0E4040134520489A470008
:105A00000A46122138B51D4653680446026083F8E1
:105A100058101068426812B190472368186883686C
:105A200029469847012038BD0368186810B1436AB9
:105A300003B11847704700BFF0B50D46002187B08D
:105A40000446AB1803F8021CEB785A2B66D0472BA0
:105A50003BD0522B03D12B794D2B00F0AA8094F828
:105A60004C307BB323680021206C9B69A26B58608B
:105A70001A60C0F1320200EB400002EB420203EB7D
:105A80008000920008306CF017FD636D002B40D051
:105A900007EE903A94ED147A2368F8EE677AB8EE40
:105AA000477A5A68C7EE276A16EE901AD1645A6C84
:105AB000012100231170236484F84C302365636551
:105AC0006364A364002007B0F0BD2B794E2B00F077
:105AD0008780472B34D0532BC1D16B79412B00F0F9
:105AE000B780562BBBD126464FF0010C04F1500E67
:105AF00004F1400756F8543B114684F84CC0284640
:105B00009A6904F1440302968DE8804021F002F97D
:105B1000D8E7236800215A68D164C8E72B79442B61
:105B20009DD16B79412B9AD100F108061146284688
:105B300004F11003009604F1180220F093FBC1E772
:105B40006B79412B8BD10379002B88D1036804F149
:105B50003C060592996E1F68884723460146059AC0
:105B60002846B965114653F8082B956A52682D6886
:105B7000009615F0030F0CBF00254FF4801501951A
:105B800020F006FE23680122586819684068DB6B24
:105B900000F57A75A063A1F8622007EE105A9FED18
:105BA000326BB8EE477B27EE067B81ED127B1A70D5
:105BB00088E76B79432B7FF452AF23461146284682
:105BC00053F8082B55689268AD68009520F0ACFF3B
:105BD0002368012299681B6C0968A1631A7071E738
:105BE0006B79532B7FF43BAF036804F13C060592BD
:105BF000996E1F68884723460146059A2846B9656D
:105C0000114653F8082B956A52682D68009615F0D6
:105C1000030F0CBF00254FF48015019520F060FBA9
:105C200022680123506811684068D26B00F57A75CC
:105C3000A063A1F8623007EE105A9FED0B6BB8EE2F
:105C4000477B27EE067B81ED127B1370237139E7CA
:105C500006681146284604F15803726821F032F8AC
:105C600030E700BFAFF30080FCA9F1D24D62503F96
:105C700010B5054C20464DF0E9FE2046034A044984
:105C8000BDE810404DF0CEBE705540207801402058
:105C9000653B4500F0B4059D0024049E2C703070D7
:105CA0002F783844287030780144C9B23170287890
:105CB0000144297031781144C9B231702878014407
:105CC0002970317801EB1221C9B231702878014472
:105CD000297062B12046195C0130347880B22144C9
:105CE0009042C9B231702C7821442970F3DBF0BCAA
:105CF000704700BF704700BF10B504461EF048FE55
:105D0000204610BD30B583B0069D079C00950194D8
:105D100000F0B8F8012003B030BD00BF30B585B049
:105D2000089D099C0095019400F0ACF8012005B095
:105D300030BD00BF00207047704700BF704700BFF4
:105D4000704700BF704700BF704700BF704700BF7B
:105D5000704700BF704700BF00207047704700BF0A
:105D6000704700BF704700BF704700BF704700BF5B
:105D7000704700BF704700BF704700BF704700BF4B
:105D80000020704700207047704700BF704700BF79
:105D9000704700BF704700BF704700BF704700BF2B
:105DA000704700BF704700BF704700BF704700BF1B
:105DB000704700BF704700BF704700BF704700BF0B
:105DC000704700BF704700BF704700BF2DE9F84320
:105DD0002B4A04460025012340264FF000084FF0CF
:105DE000000903730260294605613246256234309A
:105DF00065626427A562E5622563C4F8905284F861
:105E0000AB52C4E906896CF057FB3246294604F1CF
:105E100074006CF051FB294604F1B40024226CF0AC
:105E20004BFB3246294604F1D8006CF045FB29466D
:105E30003A4604F5E2706CF03FFB3A46294604F519
:105E4000B0706CF039FB294604F50A7068226CF0DA
:105E500033FB002384F8A852204684F8A95284F822
:105E6000AA526560A560C4F89432C4F89832C4F8A8
:105E70009C32C4F8A032C4F8A432BDE8F88300BF55
:105E8000789A47002DE9F84F00F1340805461C4682
:105E900091460A9F9E4603F1400B0B9EC246DEF8D8
:105EA00000000EF1100E5EF80C1CD4465EF8082CB3
:105EB0000AF1100A5EF8043CDE45ACE80F00EED1B2
:105EC00005F1740AC646D346DEF800000EF1100E46
:105ED0005EF80C1CD4465EF8082C0AF1100A5EF835
:105EE000043CDE45ACE80F00EED1414605F1B400BC
:105EF0001CF05CFC07EE909A9FED150A4146F8EE07
:105F0000E77A05F1D80027EE800A1CF007FD114959
:105F1000D4F8008028460A6D4B6DD4F8049043EC09
:105F2000112B49EC108B00F02FF82B6839462846CE
:105F3000DB6998472B68314628461B6A98472846F4
:105F400000F0F8FC2846BDE8F84F02F0E5BC00BFC1
:105F50006F12833A842D452004290A460648074BD0
:105F600038BF042201621A6521B16423044AB3FBDD
:105F7000F1F1517001207047F42A45202C2B452067
:105F8000741645200000000030EE016B2A4B2B49AF
:105F90002B4A2C489FED247B30B583ED000B20EE7F
:105FA000070B294C294D26EE077B2D68B8FE400BC8
:105FB000BCEEC00B80ED006BB8FE477BFCEEC77BF0
:105FC00082ED000A17EE903AC4ED007A8B4226D992
:105FD0001F4AB5EE401BA2FB03E2F1EE10FA4FEAB6
:105FE000127207EE902AB8EEE75B0CD0154401FB65
:105FF0001233184A236015609FED0D7BA5EE476BA9
:1060000080ED006B30BD9FED0A7B01FB123311491F
:10601000A5EE476B23600A6080ED006B30BD0D4B31
:106020001D6030BDAFF300800000000000408F40D5
:1060300000000000007522415812452000840C2405
:10604000182E4520F82D452004194520842D452083
:10605000F59B9F71CC0E45202DE9F04101F1400CDC
:1060600007460E4690460C4600F1340E2068103468
:1060700054F80C1C754654F8082C0EF1100E54F808
:10608000043C64450FC5F1D1314607F1B4001CF062
:106090008DFB0F49346838460A6D4B6D756843ECCB
:1060A000112B45EC104BFFF76FFF3146384600F0DF
:1060B000E1FEB8F1000F01D1BDE8F081384600F0F3
:1060C0004FF8D7F818310133C7F81831BDE8F0811F
:1060D000842D452070B50A6805464B680E4605F5C7
:1060E00092740C312DED028BC5F81C2186B09FED0A
:1060F0001B8AC5F820316846B368B0EE480AC5F877
:10610000583118F0C7FAB0EE480A06F1180103A892
:1061100018F0C0FA6A462146204618F001FB05F542
:106120009E7103AA084618F0FBFA95ED550A214620
:1061300005F5987030EE080A85ED550A51F8042BE4
:106140004B6981428A600B62F8D1D5F85C3101332A
:10615000C5F85C3106B0BDEC028B70BD6F12833A9E
:10616000F0B589B0002600F134053C2304AF019658
:10617000009639212A4602970446069601F010FB44
:10618000069B1BB104A90322084698470021314F02
:106190006C2606FB017000220131436803F0020304
:1061A000134317D10429F4D12B4B04F1740204F1E9
:1061B000D80029461B68D3F8843083F0005483F05C
:1061C0008053C4F34074C3F3007300941CF0FEFCCE
:1061D00009B0F0BD04F5B0722B4605F13001104650
:1061E000D3F800C0103353F80CEC103053F8087C8F
:1061F00053F8046C8B4240F810CC40F80CEC40F89B
:10620000087C40F8046CEBD1D3F800E00026596814
:106210009F68642341605421C0F800E0876004A8AF
:10622000D4F89871D4F82CE00290204647EA0E0783
:1062300001960096C4F89871069601F0B1FA069B93
:1062400006461BB104A9032208469847002EABD18D
:10625000E662A9E74423452054204520F0B501F12A
:10626000400C86460F4600F1D8060C4620681034D4
:1062700054F80C1C354654F8082C103654F8043CDD
:1062800064450FC5F2D1BB6B70469FED0C7A07EEEB
:10629000903A3A687B6867EE877A094943EC102B9D
:1062A000F8FE677AFCEEE77ACEED467A0A6D4B6D22
:1062B000BDE8F04043EC112BFFF766BE00007A44C6
:1062C000842D45202DE9F04F00F1D80899B000F554
:1062D0008E7906464146002409A8DFF800B21CF07A
:1062E000B3FA49467B48A24605AF7B4D1CF0E8FA5D
:1062F0006C21CDF85CA001FB04B10A684B68002159
:1063000002F01000014369D1E96C002966D1296DC2
:10631000002963D1696D002960D1D5F860E0BEF134
:10632000000F5BD1002003F00401014369D100207C
:1063300003F00801014340F09E80002203F0400377
:10634000134336D10134042CD2D1002440230297C8
:1063500042460194032100943046079401F020FA4C
:10636000079B1BB103223946384698470024402337
:1063700002974A4601943E2100943046079401F06A
:106380000FFA079B1BB1032239463846984740460F
:10639000402200216CF090F84846402200216CF029
:1063A0008BF80023C6F81831C6F85C3119B0BDE887
:1063B000F08F24230297CDF804E05F21454A304650
:1063C000CDF800E0CDF81CE001F0EAF9079B002BC6
:1063D000B8D00322394638469847B3E700243C2317
:1063E000029709AA01943A2100943046079401F0DB
:1063F000D7F9079B002BA8D0032239463846984787
:10640000A3E706F5E27C09AC0DF1540AE646254601
:106410000EF1100E10340FCD55454EF8100C4EF8FD
:106420000C1C4EF8082C4EF8043CF0D102970025C5
:10643000642307CCCEF800003046CEF80820624630
:10644000CEF80410D6F8FC41F16A01950C43009592
:1064500055210795C6F8FC4101F0A2F9079B0446B7
:106460001BB10322394638469847002C7FF46DAFA4
:106470000023F36269E706F50A72434608F140001B
:106480001146D3F800C0103353F80CEC103153F818
:10649000085C53F8044C834241F810CC41F80CECF2
:1064A00041F8085C41F8044CEBD1D6F864020024B2
:1064B000F16A682301940843009402975621C6F8B4
:1064C00064023046079401F06BF9079B0446002BE9
:1064D000C7D1CAE730204520481145204423452034
:1064E000F0B589B0002614230A4604AF0C46019685
:1064F0003421009605460297069601F051F9069B55
:106500001BB103223946384698472068A768E668D9
:10651000D4F804E0C5F89C01C5F8A0E1C5F8A47161
:10652000C5F8A8612069EB6AC5F8AC01206843F0A2
:1065300020036768A668E168C5F86802C5F87412A8
:10654000C5F86C72C5F8706220690D49C5F878020B
:1065500022686768A668E068C5F80022C5F804727A
:10656000C5F80862C5F80C022269EB62C5F8102272
:10657000A3688B66E368CB6623690B6709B0F0BD3F
:10658000E0164520F0B589B0002418230A4604AE71
:106590000D4601943521009407460296069401F0B9
:1065A000FFF8069B1BB10322314630469847294627
:1065B000384600F04DFF09B0F0BD00BF72BB1E4B66
:1065C0001B685B6C5A042BD48B68DBB2042B27D975
:1065D0008B6C07EE903AF5EE407AF1EE10FA1FD090
:1065E000B1EE047AF4EEC77AF1EE10FA18D50B6C1E
:1065F000F3EE047A07EE103AB4EEE77AF1EE10FA11
:106600000ED54B6CDFED0D7A07EE103AB4EEE77A5B
:10661000F1EE10FA4CBF012000207047012A01D092
:1066200000207047044B1B685B6C1B04F8D48B681C
:10663000DBB2042BF4D9CBE75420452000002042E4
:106640002DE9F04389B01646002580460DF110096A
:106650000C46FFF7B3FF5C230A46074606F10D011F
:10666000404601950095CDF80890069501F098F800
:10667000069B1BB10322494648469847002E4AD044
:10668000012E3ED0A368C8F83030F3EE047AE26CF5
:10669000344907EE102A344D0A68B4EEE77AF1EE79
:1066A00010FACCBF42F0100222F010020A602A68F1
:1066B00022F040722A604FB32C49087800283CD061
:1066C000606B03F4F853A16BE66BB3F5106F41EC0C
:1066D000170BF7EEC77B07EE106A77EE677AC8ED07
:1066E000A57A21D023D9B3F5306F1DD0B3F5406F13
:1066F00033D14FF040731A432A60384609B0BDE8E1
:10670000F0831FB11A4B1B78002BF6D000273846B8
:1067100009B0BDE8F083A368154AC3F38061117026
:10672000B1E7B3F5006F1BD14FF00073E3E7B3F5AA
:10673000407FF6D14FF08073DDE7D8F800604FF06E
:10674000010C0C48766A81F800C08642B8D0214618
:106750004046B047A3682A68B2E7B3F5206FE3D09C
:106760000023C8E740134520E42E4520B5554020BE
:10677000B45540203D5D400070B588B000240D4602
:10678000182304AE02F11E0101942A4600940296D9
:10679000069401F005F8069B1BB1032231463046F2
:1067A00098470C4B1B685B6C5B040FD4286858B18E
:1067B0002B69F0EE007A07EE103AB4EEE77AF1EECC
:1067C00010FA4CBF0120002008B070BD002008B0B6
:1067D00070BD00BF5420452030B589B000240A4662
:1067E000282304AD0194152100940295069400F02D
:1067F000D7FF069B1BB10322294628469847044B26
:106800001B68586C80F48040C0F3803009B030BD04
:106810005420452070B588B0002428230A4604ADD2
:106820000E4601945B2100940295069400F0B8FF97
:10683000069B1BB103222946284698470B4A0C4960
:106840001368096823F080631360496C11F4404FAA
:1068500009D1706A10F0006003D043F0806301201A
:10686000136008B070BD002008B070BDE42E452054
:106870005420452070B588B000241E46134604AD50
:106880000A460194314600940295069400F088FF70
:10689000069B1BB1032229462846984708B070BDC5
:1068A00030B589B000240A46242304AD0194472161
:1068B00000940295069400F073FF069B1BB103221F
:1068C000294628469847044B1B68586C80F4801072
:1068D000C0F3005009B030BD5420452030B589B018
:1068E00000240A463C2304AD0194582100940295EB
:1068F000069400F055FF069B1BB10322294628464B
:10690000984709B030BD00BF30B589B000240A46B1
:10691000482304AD0194572100940295069400F099
:106920003FFF069B1BB1032229462846984709B022
:1069300030BD00BF38B5244D0446286804F52671E3
:106940001C3018F067F92B68DA6907EE902AF5EE2B
:10695000407AF1EE10FA07D11A6A07EE902AF5EEA6
:10696000407AF1EE10FA23D0012284F8A8229A6A24
:1069700007EE902AF5EE407AF1EE10FA14D1DA6AB9
:1069800007EE902AF5EE407AF1EE10FA0CD11B6B6F
:1069900007EE903AF5EE407AF1EE10FA14BF0123BB
:1069A000002384F8A93238BD012384F8A93238BD08
:1069B0005A6A07EE902AF5EE407AF1EE10FA14BF0B
:1069C00001220022D1E700BF54204520F0B56E4CD3
:1069D000036922689A422DED028B91B000F0CF80BE
:1069E00090F8A82205462360002A3FD1674BD0F8D3
:1069F000C0C01E6B586BD3F828E0DF6AD9691A6AE9
:106A00005B6A26636063D5F8C460D5F8C80063622A
:106A100095F8A932C4F828E0E762E1612262CDF876
:106A200004C002960390002B5FD1DFF860E1DEF82E
:106A30000460DEF80C00DEF81420DEF80870DEF8E2
:106A40001010DEF818306660A760E06021616261B6
:106A5000A3614F4B01204F4A1B684F4912686B627C
:106A60004B60AA6211B0BDEC028BF0BD00F526763A
:106A70004A4A04F12800314617F016FFE36A00EE97
:106A8000103AA36A20EE000A06EE903A236BA6EEB7
:106A9000A60A07EE103A636B07EE903AA7EE070AD4
:106AA000A7EEA70AB5EE400AB1EEC08AF1EE10FAE1
:106AB00038D4DFED3B7AB4EEE78AF1EE10FA59DC18
:106AC0009FED380A3849084617F0F8FD374A314635
:106AD000374817F0E5FF314605F1C00201A817F06D
:106AE000DFFF95F8A932002B9FD0324C04A82E4925
:106AF0002268283217F0ACFF04A80AAA2E491BF01E
:106B00003FFD0AAA2C492D4817F024FE226807A849
:106B100001A9283217F076FD254907AA084617F083
:106B2000FFFD96E766F0E0FDDFED1D7AB4EEE78A43
:106B3000F1EE10FAC4DDE36A07EE903AA36A67EE5D
:106B4000A77A06EE103A236BE6EE067A06EE903A46
:106B5000636B07EE103AB0EE670AA6EEA60AA7EE40
:106B6000070AB5EE400AB1EEC08AF1EE10FA01D57F
:106B700066F0BAFDF7EE007A87EE880AA2E70020F9
:106B800011B0BDEC028BF0BD18124520D812452083
:106B9000E42E452040134520F42A452000134520CB
:106BA0009595E624CA1B0E5A40124520F412452042
:106BB0003412452054204520DC1245201C1245206B
:106BC0001F4B026919688A4238D0F0B587B0044675
:106BD0001A60FFF7FBFE1B4B68461B4E19684831D5
:106BE0001BF012FD3246684618491BF0DDFBA6F18A
:106BF0003001174817F08EFF164BA6F11800DF6919
:106C0000191D1A6A5B6A46F8247C46F8202C46F85F
:106C10001C3C1BF0E1FCD4F820E00120A769E169ED
:106C2000626AA36A46F844EC46F8407C46F83C1C8D
:106C300046F8382C46F8343C07B0F0BD00207047C9
:106C4000A455402054204520782D45201C12452075
:106C50004012452018124520F8B5184B02691968F2
:106C60008A4228D005461A60FFF7B0FE144B154C37
:106C70009A6A191DD3F82CC004F13000D3F830E023
:106C80005F6BDE6962611A6A5B6A27626662A26292
:106C9000E362C4F818C0C4F81CE01BF09DFC05F1C9
:106CA0002001AF690120EE696760A6600EC921600E
:106CB000E2602361F8BD0020F8BD00BFA855402068
:106CC00018124520BC184520F8B51E4B02691968FA
:106CD0008A4235D005461A60FFF778FE1A4B1B4CE6
:106CE0009A6A191DD3F82CC004F13000D3F830E0B3
:106CF0005F6BDE6962611A6A5B6A27626662A26222
:106D0000E362C4F818C0C4F81CE01BF065FC226CF8
:106D1000636C012095EDA57AAF69EE69296A676019
:106D2000A660216043EC162BF7EEC67B6A6AAB6A5D
:106D3000E26077EE877A236117EE905AA564F8BD7A
:106D40000020F8BDAC5540201812452020104520E9
:106D5000254B026919688A4242D001682DE9F04743
:106D6000896F8246214C1A60A1423BD1204A012002
:106D7000204B9168D2F82480D66A546BD2F82890C0
:106D8000956B59615169D2F80CC0176BD2F810E0BD
:106D9000C3F830808846C3F83490D169D2F818908F
:106DA0009E63126ADAF818601C645D64DAF82040A9
:106DB000DAF81C50DF63DA62C3F818C0C3F81CE0CD
:106DC000C3F82080C3F8249099625E609D601C60C7
:106DD000DAF82410DAF82820D9601A61BDE8F087C3
:106DE000002070478847C1E7B05540206D5D4000E6
:106DF000F4244520CC224520F1EE006A30B400F1A5
:106E00000C040025D1ED007A90ED037AF4EEC77AF8
:106E1000F1EE10FA1AD590ED007AF4EEC77AF1EEA1
:106E200010FA07D5C0ED007AD1ED007A67EEA67AA8
:106E3000C0ED037A04300431A042E3D17DB9137868
:106E4000022B05DC0133137030BC70470125F1E7DC
:106E5000074A029913680B4030BC1360704704481E
:106E60000024016819430160147030BC704700BFF2
:106E7000401345202DE9F04F2D4D2C682DED028B50
:106E80009BB024B32B4E01F10803224601F13807D1
:106E9000D6F80090D3F80080103353F80CCC1032A1
:106EA00053F808EC53F8046CBB4242F8108C42F8DB
:106EB0000CCC42F808EC42F8046CEBD130344C4571
:106EC0002C604BD21BB0BDEC028BBDE8F08F1A4892
:106ED00001F1080401F1380E184900F57A73184AD7
:106EE0000860184EA2F57077174912480B6033609E
:106EF0001649174B0260174AD96019615961196028
:106F0000596099605A629A62DA629A61DA611A6229
:106F10002068103454F80C1C3E4654F8082C1037E6
:106F200054F8043C74450FC6F2D10B4B2B60C9E7F3
:106F3000B4594020B0594020C8554020C455402085
:106F4000785D4020BC554020C05540209A99993E1C
:106F5000745540200AD7A33DE8594020D1F800A03D
:106F60004FF03008D1F804B00446E14F1423E14E4D
:106F70002F6039463068E04A4BEC17ABF7EEC77B21
:106F800017EE905A40F8345BCDF800801BF030FFCC
:106F9000306807F10C0114234030D84ACDF8008046
:106FA0001BF026FF306839464346043014221BF09C
:106FB00063FF306807F10C014346103014221BF0C8
:106FC0005BFF306807F1180114234C30CC4ACDF830
:106FD00000801BF00DFF306807F1240114235830A6
:106FE000C84ACDF800801BF003FF306807F1180194
:106FF00043461C3014221BF03FFF3068C24D07F19E
:10700000240128304346142202AF1BF035FFD5ED92
:10701000137AD5ED0D8A02A895ED0E8A4FF0000E79
:10702000F4EEE78AD5ED145A95ED0F0A95ED156A41
:10703000F1EE10FAD5ED100AB4EEE58AD5ED166A38
:1070400095ED111AD8BFF0EE678A95ED177AF1EE3B
:1070500010FAD5ED121AB4EEC60AD5ED187AD8BFDB
:10706000B0EE658AF1EE10FAF4EEE60AD8BFB0EEA3
:10707000460AF1EE10FAB4EEC71AD8BFF0EE660A6F
:10708000F1EE10FAF4EEE71AD8BFB0EE471AF1EEBF
:1070900010FAD8BFF0EE671A0EF198030EF21C41F9
:1070A000B0EE686AF0EE615A2B44B0EE485A2944BB
:1070B000F0EE414AB0EE604AF0EE403AD3ED006A9D
:1070C00003F10C0293ED012A6433F4EE466A53EDAA
:1070D000172A13ED167AD2ED017AF1EE10FA92ED3D
:1070E000023AB4EEC52A48BFF0EE466AF1EE10FA55
:1070F000F4EEE32AB0EE666A58BFB0EE425AF1EE03
:1071000010FAB4EE447A58BFF0EE623AF1EE10FA9B
:10711000F4EE647A48BFB0EE447AF1EE10FAB4EEC1
:10712000653AB0EE474A48BFF0EE647AF1EE10FAE5
:10713000F0EE674A58BFF0EE435A9942BED10EF1C5
:10714000180E16EE903AC0ED023ABEF1300F80ED07
:10715000037AC0ED047A80ED015AC0ED055A40F87B
:10716000183B99D1DFF8C08100233168D8F800209E
:10717000D1ED007A92ED007A77EEC77AF5EE407A9B
:10718000F1EE10FA40F01E810DF138090E930F93C5
:1071900010931193129313931493159316931793BB
:1071A000189319936FF0010002A90123574A009028
:1071B0005748FFF721FE6FF002010223554A009164
:1071C00005A95548FFF718FE544BDFF860E1484623
:1071D0001A680023CEF80020D0ED007A03EB83017B
:1071E00090ED016A013390ED024A0EEBC101F4EE1D
:1071F000C67AD0ED032AD0ED046A0A46D0ED054ADE
:107200001837F1EE10FA17ED063A17ED057A00F18E
:10721000180017ED045A58BFB0EE676A57ED033AED
:1072200057ED027A57ED015AB4EEC64AF1EE10FA64
:10723000F4EEE62AD4BF16EE10CA14EE10CAF1EE30
:1072400010FAC1F804C058BFF0EE626AF4EEE64AE4
:10725000F1EE10FAB4EEC73AD4BF16EE901A14EE5F
:10726000901AF1EE10FA42F8081F58BFB0EE437AB8
:10727000B4EEC75AF1EE10FAF4EEE73AD4BF17EEC7
:10728000101A15EE101AF1EE10FA516058BFF0EE18
:10729000637AF4EEE75AF1EE10FAD4BF17EE901AC3
:1072A00015EE901A022B916096D1DEF804309FED16
:1072B0001C7A07EE903AF0EEE77AF4EEC77AF1EE38
:1072C00010FA35DCDEF82C3007EE903AF0EEE77A73
:1072D000F4EEC77AF1EE10FA2ADC0C4B9A78022A07
:1072E0006DDD10490A6822F004020A6028E000BF40
:1072F000B8594020C4554020F416452000174520B9
:107300001C17452028174520C8554020B855402057
:1073100074554020B95540208C5540200419452013
:107320005077D63C40134520C0554020E0164520FC
:1073300042490020424B0A68987042F004020A60F9
:10734000DEF808209FED3F7A07EE902AF0EEE77A0C
:10735000F4EEC77AF1EE10FA13DCDEF8302007EE17
:10736000902AF0EEE77AF4EEC77AF1EE10FA08DC34
:10737000DA78022A20DD314A136823F0080313600B
:1073800006E02E4900200A68D87042F008020A6020
:1073900033682D4A643312683360934202D33560F8
:1073A0002A4D2B46643320469A4298BF2B46C8F894
:1073B000003000F0E1F885E50132DA70E8E70132EB
:1073C0009A70BDE7B7EE007A0DF138090432043146
:1073D000484687EE278A17F0F7F9D8F8002011A859
:1073E00031681032103117F0EFF949464846B0EED7
:1073F000480A17F04FF911A9B0EE480A084617F0ED
:1074000049F9D8F80020316814A81C321C3117F053
:10741000DBF9D8F80020316817A82832283117F096
:10742000D3F914A9B0EE480A084617F033F917A9A2
:10743000B0EE480A084617F02DF9B3E64013452090
:10744000B8554020CDCCCC3EBC554020C85540203E
:107450002DE9F0413F4C2368002B67D03E4AC868B5
:10746000126843F8040B934202D22360BDE8F08116
:107470000E6804234F681422384D3949D5F800802E
:1074800047EC176BF7EEC77B364E30462660C8EDEB
:10749000007A354C1BF04CFC3046042288ED020A81
:1074A00014212E681BF0B0FB2A682368D2ED007A05
:1074B00093ED007A86ED010A77EEC77AF5EE407A11
:1074C000F1EE10FA25D1294E294B1846D3ED027A58
:1074D00003F16C0193ED057A0C33B4EEE77AF1EE2B
:1074E00010FA58BFF0EE477A9942F3D121490C3295
:1074F00017EE903A09682A608A42336602D3286000
:107500001B4802460C32914298BF02462260BDE8F9
:10751000F081D3ED016A92ED017A144E37EE667A6E
:10752000C7EE276A16EE903AF365CDE70D4B10488B
:1075300003F15006084D00F17802084F2E600D4E01
:10754000094D386032602A60CA6843F8042B236012
:10755000BDE8F081005E4020FC5D4020805D402061
:1075600044174520045E40207C5D4020E016452005
:10757000845D4020785D402070B5594C88B0054648
:107580002268531E062B47D8DFE803F07D5F5F5F5C
:1075900046480400534E00235349012032680968CD
:1075A00022F040726370C904A3703260E3702070EF
:1075B00040F18180616831F0FF0340F0898041F043
:1075C00001014A4BA0681B7800284FEA031308BF4B
:1075D0000120DBB219430343A3601B07616002D1A2
:1075E00042F04072326012F0407F02D142F00072ED
:1075F00032600024012204AE382301922846009410
:1076000040210296364A069400F0CAF8069B1BB148
:10761000032231463046984708B070BD314A13689E
:1076200043F08073136000F081FB314B1B68322BF9
:10763000F2D1284600F0BCFD19F03EFF00230722DE
:107640006370A370E3702270E6E72A492A4B096849
:10765000264E1960327000F059F8284600F0DAF82A
:1076600033781A1F012A254A94BF4FF07E512449CE
:10767000032B4FF00003116011D107226370A37038
:10768000E3702270B5E71B4B44F620621A491B6871
:1076900009685B1A9342BFD900F05EF8BCE7144A50
:1076A0000B2006216370A370E37053709370D37046
:1076B000107021709DE7134B1B68D3F8C030C3F3E3
:1076C0001303002B7FF476AF61680F4B0B401BB1A7
:1076D00042F04072326074E741F0020171E700BF8E
:1076E0007C25452040134520E42E4520585E40204F
:1076F00024214520182E4520545E4020101345209B
:107700000000204054204520000FFFFFF0B5104E30
:1077100089B00446382200210E486AF0CDFE336855
:107720000025012204AF204623F040740192382343
:10773000009502974021074A3460069500F030F822
:10774000069B1BB1032239463846984709B0F0BD65
:10775000401345207C254520F0B50F4E89B000240C
:107760000E4D3168012304AF009421F04071019364
:107770002A4638233160402102972C706C70AC701F
:10778000EC70069400F00CF8069B1BB103223946FE
:107790003846984709B0F0BD401345207C25452068
:1077A0002DE9F04F8BB09B46002480469DF8543065
:1077B0008946924606AD169E05930027B3680222BD
:1077C000314608972846D8F8047023B19847F268E4
:1077D000B36809920893059A5B4614992046019272
:1077E00052460091494602950134B847089B03224E
:1077F0002946284603B19847042CDED1D8F8084022
:1078000024B1149B5A4651464846A04700200BB06D
:10781000BDE8F08F104A08B51268104BD2F8242D3D
:107820005B689A4204D00E4A936843F480239360C5
:1078300000F018F823F0B8F928B9094A936843F41E
:107840008013936008BD23F0A5F920B9044A93681A
:1078500043F40013936008BDFC184020882745209E
:107860007C2545203C4A3D4B9FED3D1A9FED3D0A4E
:10787000DFED3D1A9FED3D2ADFED3D0A2DE9F04F8A
:107880002DED028B12694FF000081E6885B0324B57
:1078900004EE902A304AC146DB68C246526940462F
:1078A00004EE103A2C4B05EE102A2B4A9B68C34677
:1078B000CDF808804446926903EE902A264AD269A0
:1078C000CDF80C8003EE102A234A126A02EE902AA9
:1078D000039940F2846202FB01F2B51855F898CF83
:1078E0000CF1FF31C9B213294AD943F48073012442
:1078F000039A0132022A0392EAD1002C40F011824D
:10790000029B1BB112EE903A134A1362BBF1000FB7
:1079100003D013EE103A104AD36118B113EE903A27
:107920000D4A9361BAF1000F03D014EE103A0A4ADF
:10793000D360B9F1000F03D014EE903A064A1361F8
:10794000B8F1000F03D015EE103A034A536105B0A9
:10795000BDEC028BBDE8F08F7C254520FC18402053
:107960005077D63E0AE81C41A692AB3BCDCCCC3D2D
:10797000172BC83B00008C42CDCC4C3D95BFD63375
:107980006968F2EE047A5FFA8CFC07EE101AB4EE26
:10799000E77AF1EE10FA00F372814C250CF1FF3119
:1079A0005FED0C7A05FB01223244D2F89C2007EEF1
:1079B000102AB4EEE77AF1EE10FA00F1608140F29D
:1079C0008465039A00214C2705FB02F507FB015251
:1079D0003244D2F8B8E007EE90EAF5EE407AF1EEE4
:1079E00010FA2DD1D2F8BCE007EE90EAF5EE407A1D
:1079F000F1EE10FA24D1D2F8C0E007EE90EAF5EEED
:107A0000407AF1EE10FA1BD1D2F8A0E007EE90EA2E
:107A1000F5EE407AF1EE10FA12D1D2F8A4E007EEBA
:107A200090EAF5EE407AF1EE10FA09D1D2F8A820EA
:107A300007EE902AF5EE407AF1EE10FA00F06A8136
:107A400001311429C2D1039F40F2846140F2A11E8A
:107A5000002201FB07F10EFB07FE01911146614573
:107A6000BFF646AF4C2201984D1C02FB0102324486
:107A7000D2F89C2007EE902AF4EE677AF1EE10FA25
:107A800002D043F4006301244FF04C08019801EB4D
:107A9000C10208FB050005EBC50701EB420100220E
:107AA000304405EB4707D0F89C0005EE900A75EED0
:107AB000E75A8818704406EB8000D0F8A08007EEE3
:107AC000908AF4EE677AF1EE10FA00F0DC80D0F8DC
:107AD000B84008EE104AD0F8AC40D0F8C40007EE29
:107AE000104A06EE100A43F400630124F0EEE76A40
:107AF000F4EEC46AF1EE10FAF4EEC16A58BFB0EECB
:107B0000664AF1EE10FA02DD43F480530124F0EEF0
:107B1000C86A022AF0EE088A08BF76EEC06AF4EE60
:107B2000E46AF1EE10FAF4EEE86A58BFF0EE664A45
:107B3000F1EE10FA02DD43F400430124F0EEC76ACF
:107B4000F4EEC56AF1EE10FAF4EEE16A58BFB0EE59
:107B5000665AF1EE10FA02DD43F400530124F0EE10
:107B6000C66AF4EEE36AF1EE10FAF4EEC26A58BFA8
:107B7000F0EE663AF1EE10FA02DD43F480330124B0
:107B8000654572DAB818704406EB8000D0F8AC8016
:107B900006EE908A76EEC76AF0EEE66AF4EEC36A05
:107BA000F1EE10FAF4EEE06A58BFB0EE663AF1EE8C
:107BB00010FA02DD43F480430124D0F8C4805FED65
:107BC000928A06EE908A76EEC66AF0EEE66AF4EEE7
:107BD000E26AF1EE10FAF4EEE86A58BFF0EE662AB7
:107BE000F1EE10FA02DD43F400330124F5EE405AC1
:107BF000F1EE10FA59D0D0F8A08006EE908A76EE19
:107C0000E77AC7EEA56AF5EE406AF1EE10FA0DD0FC
:107C100036EEC77A5FEDA77AB0EEC77AB4EEE77AB0
:107C2000F1EE10FA02DD43F480630124D0F8B800CD
:107C300007EE900A37EEC88AC8EE257AF5EE407A4C
:107C4000F1EE10FA31D037EEC66A5FEDB47A4FF03C
:107C5000010BB0EEC66AB4EEE76AF1EE10FA56DD3B
:107C600043F480635C46CDF808B001320120032A5A
:107C70008246814680467FF41CAF2946EFE643F4F6
:107C8000007301249BE6D0F8AC8007EE108AB4EEB6
:107C9000477AF1EE10FA0DD0D0F8B840D0F8C40011
:107CA00008EE104A06EE100A1DE74FF0010BCDF862
:107CB00008B0DAE7D0F8B88008EE108AB4EE488A47
:107CC000F1EE10FA04D0D0F8C40006EE100A0AE76C
:107CD000D0F8C48006EE108AB4EE466AF1EE10FACF
:107CE0007FF401AFD0F8D08006EE908AF4EE666A99
:107CF000F1EE10FA7FF4F7AED0F8DC0006EE900A51
:107D0000F4EE666AF1EE10FA3FF4F0AEEBE6CDF871
:107D100008B0AAE78C453FF496AE43F48063012493
:107D200091E6014A9360EBE57C2545202DE9F84377
:107D3000ED4F2DED028B7B68002B40F01A82EB4D4E
:107D40006B6843F480536B60E94B9B685A0208D51B
:107D5000E8484368002B40F011826B6843F480537D
:107D60006B60E54B9A6807EE902AF5EE407AF1EEEB
:107D700010FA08D0DA6807EE902AF5EE407AF1EEB4
:107D800010FA40F0D3816B6843F480636B60DB4989
:107D9000CB6806EE903AF5EE406AF1EE10FA17D095
:107DA000D748B7EE005BD1F80080D0F83822D1F880
:107DB0000490D0F83C3249EC148B43EC172B37EE8F
:107DC000447BB0EEC77BB4EEC57BF1EE10FA03DD69
:107DD0006B6843F400636B60CA4ECB4CDFEDCB7A2B
:107DE00096ED007AE36D67EE277A06EE103AF4EE30
:107DF000C67AF1EE10FA03D56B6843F400636B604A
:107E00007B682BB1C24B1B685B6C5B0440F12B8120
:107E1000E3689FEDC06A07EE903A636B27EE066A4F
:107E200005EE903AEB6AF4EEE57A06EE903AF1EE62
:107E300010FAD8BFF0EE657AF4EEE67AF1EE10FAB9
:107E4000F4EEC67A54BF17EE903A16EE903AF1EE81
:107E500010FAEB6203DD6B6843F480736B60236997
:107E6000F6EE005A07EE903AA36B27EE257A06EE5F
:107E7000103A2B6BF4EEC67A06EE903AF1EE10FA59
:107E8000D8BFF0EE467AF4EEE67AF1EE10FAF4EEB0
:107E9000C77A54BF17EE903A16EE903AF1EE10FA08
:107EA0002B6303DD6B6843F400736B60A36900EE22
:107EB000103A636920EE000A07EE103AE369A7EE74
:107EC000070A07EE903AA7EEA70AB5EE400AF1EED0
:107ED000C08AF1EE10FA00F15781236C00EE103ADF
:107EE000E36B20EE000A07EE103A636CA7EE070A78
:107EF00007EE903AA7EEA70AB5EE400AB1EEC08AA7
:107F0000F1EE10FA00F13D81F4EEC88AF1EE10FABC
:107F100040F39F80A36900EE103A636920EE000AE7
:107F200007EE103AE369A7EE070A07EE903AA7EECC
:107F3000A70AB5EE400AB1EEC08AF1EE10FA00F1E0
:107F40002F81D6ED007A9FED747A67EE877AB4EED2
:107F5000E78AF1EE10FA03DDAB6843F48003AB600F
:107F6000636A00EE103A236A20EE000A07EE103A28
:107F7000A36AA7EE070A07EE903AA7EEA70AB5EEA6
:107F8000400AF1EEC08AF1EE10FA00F10681E36CCE
:107F9000DFED626A00EE103AA36C78EEE68A20EE1E
:107FA000000A07EE103A236DF0EEE88AA7EE070A02
:107FB00007EE903AA7EEA70AB5EE400AB1EEC08AE6
:107FC000F1EE10FA00F1E680DFED547A38EE678AC0
:107FD000B0EEC88AF4EEC88AF1EE10FA2FDD636ABB
:107FE00000EE103A236A20EE000A07EE103AA36A68
:107FF000A7EE070A07EE903AA7EEA70AB5EE400AE9
:10800000B1EEC08AF1EE10FA00F1C180DFED437AE3
:1080100096ED007A78EE677ADFED416A27EE267AF0
:10802000F0EEE77AF4EEC77AF1EE10FA03DDAB6812
:1080300043F40003AB60BDEC028BBDE8F883E36C56
:1080400000EE103AA36C20EE000A07EE103A236D02
:10805000CEE7236C00EE103AE36B20EE000A07EE49
:10806000103A636C5FE7BB68DBB2042B7FF6D0AEDF
:10807000BB6C07EE903AF5EE407AF1EE10FA3FF461
:10808000C7AEB1EE046AF4EEC67AF1EE10FA7FF5EF
:10809000BFAE3B6CF3EE047A06EE103AB4EEE76A3C
:1080A000F1EE10FA7FF5B4AE7B6CDFED1E7A06EED2
:1080B000103AB4EEE76AF1EE10FA7FF5A9AEFB6B69
:1080C000DFED197A06EE103A76EEC66AF0EEE66A51
:1080D000F4EEE76AF1EE10FA7FF79AAE6B6843F4BC
:1080E00000636B6094E600BF842D45207C2545200D
:1080F000582C452048184520C4124520D826452034
:10810000A81D452010134520E01645209A99993F57
:10811000542045205077563DC2B8323D0AE81C41F4
:108120009A99993E0000204200007A431A6907EEAE
:10813000902AF5EE407AF1EE10FA3FF424AE1A4A96
:10814000B7EE006BD3F80080D2F83802D3F8049071
:10815000D2F83C1249EC158B41EC170B37EE457BFE
:10816000B0EEC77BB4EEC67BF1EE10FA3FF70BAE74
:108170000DE638460D4D00F045FCE5E500F042FC0B
:10818000EFE565F0B1FABFE665F0AEFAA5E665F099
:10819000ABFA3BE765F0A8FA16E765F0A5FAF6E654
:1081A00065F0A2FACDE600BFA81D45207C2545203C
:1081B0002DE9F84F0023584C584D1F46DFF86C91BD
:1081C000574EA36263622DED068B9FED518BDFED61
:1081D000559A9FED559A4FEA470A07F101080AEBB5
:1081E000070308EB480205EBC30305EBC202D9699C
:1081F0009B6900EE101A07EE103A936820EE000A11
:1082000007EE903AA7EE070AA7EEA70AB5EE400AD6
:10821000B1EEC0AAF1EE10FA71D4D9F80010D1F87D
:1082200048B0D1F84CC0CB6D8A6D4CEC17BB27EE33
:10823000080B43EC112B1AF04FFAA36A3AEE400AEE
:1082400007EE903AB0EEC07AF0EEE77AB4EEE77A55
:10825000F1EE10FA02DD10EE103AA36296ED006A1C
:1082600066EE297AB4EEE77AF1EE10FA08DD002F17
:10827000A26814BF4FF000534FF080531343A36024
:10828000002F0AEB07014FF00000636A26EE096A2F
:108290004FEA41010CBF4FF0807C4FF0007C8646D6
:1082A000024605EE903AA7688B18F0EEE57A0132A7
:1082B000023305EB83035B6806EE903AB0EEE67A94
:1082C000B4EEE77AF1EE10FA03DD05EE903A4FF0E6
:1082D000010EB4EEC67AF1EE10FA02DD47EA0C07A1
:1082E0000120032AE0D1BEF1000F0DD150B947465D
:1082F000022F7FF470AFBDEC068BBDE8F88F65F000
:10830000F3F98AE7A760F2E715EE903A6362EDE7CA
:10831000399D52A246DF913F7C25452024214520EE
:1083200010134520CDCC4C3E35FA8E3C54204520D0
:10833000F0B504469BB000F0BFF82369D4F80C23D5
:108340009A1A002AB8BF5242C72A6FDCD4F8102309
:108350009A1A002AB8BF5242C72A4ADCD4F814231A
:108360009A1A002AB8BF5242C72A26DCD4F818232A
:108370009A1A002AB8BF5242C72A01DC1BB0F0BDCE
:10838000226808AD4549526CC4F818338A427AD144
:10839000002604AF48232A4620460196009657211E
:1083A00002970696FFF7FCF9069B002BE6D0032206
:1083B0003946384698471BB0F0BD22683849D2F894
:1083C000A420C4F814338A4261D1002608AD682382
:1083D000344A01963B210096204602950A96FFF703
:1083E000DFF90A9B1BB103222946284698472369D7
:1083F000BCE7002608ADC4F810332721602301969E
:10840000009620460295284A0A96FFF7C9F90A9B6A
:108410001BB10322294628469847244AD2E9000185
:10842000652871F100031CDA236997E72268204967
:10843000926FC4F80C338A422DD1002608AD602318
:108440001C4A019630210096204602950A96FFF7B5
:10845000A7F90A9B1BB1032229462846984723699E
:1084600074E70026682302954F2101962046009666
:108470000A96FFF795F90A9B002BD5D003222946CF
:1084800028469847D0E720462946904780E7054987
:108490002046904799E720469047CEE7415D40004F
:1084A000995D4000D40D4520B4204520E0104520C2
:1084B0006D5D4000F4244520026942F20F71D0F84E
:1084C0000033D31A002BB8BF5B428B4204DD062376
:1084D000C0F8002380F81C33D0F80433D31A3333A8
:1084E000662B04D990F91C33C0F8042303B97047F4
:1084F000013BF0B50446ADF6345D80F81C33052B26
:1085000027D8DFE803F003264F9EAF2903686E4AA1
:108510001B6993421DD098470238012819D8236857
:108520006A4AD3F88C30934240F0C680002308ADED
:10853000002704AE2A462046029631210197009773
:108540000697FFF72DF9B3681BB103223146304679
:1085500098470DF6345DF0BD08AD00265C4A4FF437
:1085600086730C211268029501960096AE60FFF7A3
:1085700017F9AB681BB10322294628469847002605
:10858000029554232046019601210096514AAE607F
:10859000FFF706F9AB68002BDBD0032229462846FB
:1085A0009847D6E70368484A1B699342D1D0984759
:1085B00002380128CDD82368474A9B6F934201D0E7
:1085C0002046984708AD00266023444A0295302192
:1085D000019620460096AE60FFF7E2F8AB681BB14B
:1085E000032229462846984723683D4AD3F8943009
:1085F00093425DD104AE00273C232A4602963221E5
:10860000019720460097B760FFF7CAF8B3681BB11F
:1086100003223146304698472368324AD3F89C30CB
:10862000934241D10027029604232A46019720460F
:1086300000973321B760FFF7B3F8B368002B84D1FC
:1086400087E70026284B08AD24211A684FF4F273FF
:108650000295019600960A96FFF7A2F8AB68002BE8
:108660009BD176E708AD00263823204A02950A21DF
:1086700001960096AE60FFF793F8AB681BB103223A
:108680002946284698470026194B029520461A6825
:1086900023211C2301960096AE60FFF781F8AB689A
:1086A000002B7FF47AAF54E7294620469847B9E774
:1086B0002946204698479DE708ADE72220462946EF
:1086C0009847830034E700BF355D4000815D40007E
:1086D00054204520882745206D5D4000F424452026
:1086E000895D4000915D4000841A4520F42A4520B0
:1086F000142E4520454A464B1268F0B589B0044611
:108700001A60FEF75DFA38BB04AD2046FEF7A4FA06
:10871000002839D12046FEF7D7FA00284BD1204651
:10872000FEF716FB00285DD100213A4F3A4E482350
:10873000019104F52B720091204602954321049487
:1087400007970696FFF72CF8069B1BB103222946D4
:108750002846984709B0F0BD002604AD50232F4AA3
:10876000019604210096204602950696FFF718F818
:10877000069B002BC9D0032229462846984720464D
:10878000FEF76AFA0028C5D0002648230295052185
:10879000234A2046019600960696FFF701F8069BAD
:1087A000002BB7D003222946284698472046FEF7DB
:1087B0008BFA0028B3D000264C2302954121194A98
:1087C0002046019600960696FEF7EAFF069B002BD0
:1087D000A5D003222946284698472046FEF7B8FA36
:1087E0000028A1D000264823029542210E4A2046A7
:1087F000019600960696FEF7D3FF069B002B93D0BA
:1088000003222946284698478EE700BF04194520D1
:10881000F42A4520D5894000ED894000342D4520BB
:10882000BC18452020104520CC2245202DE9F843D6
:10883000026941F28731D0F8F832D31A002BB8BF61
:108840005B428B4201DCBDE8F883C0F8F8222D487A
:1088500019F0F2FE0028F6D02B4D2868436C5B041B
:10886000F1D42A4CA368DBB2042BECD9A36C07EE3D
:10887000903AF5EE407AF1EE10FAE4D0B1EE047AD7
:10888000F4EEC77AF1EE10FADDD5236CF3EE047A3C
:1088900007EE103AB4EEE77AF1EE10FAD3D5636C36
:1088A000DFED1B7A07EE103AB4EEE77AF1EE10FA3C
:1088B00001D4BDE8F883603004F1240119F03CFED6
:1088C0002B68D3F8802007EE902AB4EEE70AF1EE89
:1088D00010FAB8DDA16BD4F82480E66A606BD4F896
:1088E0002890276B0B4AC3E91C01C3E91889C3E927
:1088F0001A6711686268D9679A67BDE8F84349F05A
:10890000BDBE00BFA82D452054204520842D452004
:1089100000002042CC0E452010B50023224C234AF3
:1089200084F83C3003681B6993422AD1204A1821FD
:10893000204816F073FF204C2368D3F8C03013F0A2
:108940000C0F15D19A070AD11C4A1A4002B910BD62
:108950001B4A18211748BDE8104016F05FBF194A9E
:108960001821144816F05AFF2368D3F8C030EBE7FB
:10897000154A18210F4816F051FF2368D3F8C0306C
:10898000E0E79847022808D00328CFD104F13C0043
:108990000E4A182116F042FFCDE704F13C000C4AC4
:1089A000182116F03BFFC6E788274520355D4000BB
:1089B0004C9A4700C427452054204520F0FF0F0063
:1089C0006C9A4700689A4700649A47005C9A47008F
:1089D000549A47000068044A0368D3F884309342ED
:1089E00000D17047184700BF795D4000012A05D0CB
:1089F000022A01D10B68036000207047016000204B
:108A0000704700BF274B1B685B6C5B0403D4836813
:108A1000DBB2042B1ED8244A536843F4005353603E
:108A2000C36CF3EE097A07EE103AB4EEE77AF1EE92
:108A300010FA04D51C4A536843F40053536090F86D
:108A40005A300A2B05DD184A536843F480435360BB
:108A500070477047836C07EE903AF5EE407AF1EE7E
:108A600010FAD8D0B1EE047AF4EEC77AF1EE10FA2B
:108A7000D1D5036CF3EE047A07EE103AB4EEE77A40
:108A8000F1EE10FAC7D5436CDFED087A07EE103A25
:108A9000B4EEE77AF1EE10FABDD590F85930092B13
:108AA000B9DDBDE7542045207C254520000020424B
:108AB000D0ED037AB7EE007A90ED026AF0EE006A2C
:108AC00067EEA77AE6EE067AB0EE476AA7EEE66AA8
:108AD00081ED006A90ED036AD0ED007AD0ED015A85
:108AE00067EE867A90ED026AE5EE867A77EEA77AEF
:108AF000C1ED017A90ED006AD0ED027AD0ED015A15
:108B000067EEC67A90ED036AE5EE867A77EEA77A8D
:108B1000C1ED027A90ED006AD0ED037AD0ED015AF2
:108B200067EEC67A90ED026AE5EE867A77EEA77A6E
:108B3000C1ED037AD0ED037A90ED016A67EEA77A72
:108B4000E6EE067AB0EE476AA7EEE66A81ED046AC1
:108B500090ED016AD0ED007AD0ED025A67EE867A88
:108B600090ED036AE5EE867A77EEA77AC1ED057A95
:108B700090ED026AD0ED007AD0ED015A67EE867A68
:108B800090ED036AE5EE867A77EEA77AC1ED067A74
:108B900090ED006AD0ED017AD0ED025A67EEC67A08
:108BA00090ED036AE5EE867A77EEA77AC1ED077A53
:108BB000D0ED027A90ED016A67EEA77AE6EE067ACA
:108BC000A7EEE67A81ED087A704700BFD0ED037A10
:108BD000B7EE007A90ED026AF0EE006A67EEA77ACF
:108BE000E6EE067AB0EE476AA7EEE66A81ED006A25
:108BF00090ED006AD0ED037AD0ED015A67EEC67AA7
:108C000090ED026AE5EE867A77EEA77AC1ED017AF9
:108C100090ED026AD0ED007AD0ED015A67EE867AC7
:108C200090ED036AE5EE867A77EEA77AC1ED027AD7
:108C300090ED036AD0ED007AD0ED015A67EE867AA6
:108C400090ED026AE5EE867A77EEA77AC1ED037AB7
:108C5000D0ED037A90ED016A67EEA77AE6EE067A28
:108C6000B0EE476AA7EEE66A81ED046A90ED006A0D
:108C7000D0ED017AD0ED025A67EEC67A90ED036A24
:108C8000E5EE867A77EEA77AC1ED057A90ED006A77
:108C9000D0ED027AD0ED015A67EEC67A90ED036A04
:108CA000E5EE867A77EEA77AC1ED067AD0ED007A06
:108CB00090ED016AD0ED025A67EE867A90ED036A74
:108CC000E5EE867A77EEA77AC1ED077AD0ED027AE3
:108CD00090ED016A67EEA77AE6EE067AA7EEE67AED
:108CE00081ED087A704700BF70B52DED068B90EDD1
:108CF000010A98B090ED007A20EE000AD0ED027AD9
:108D0000A7EE070AA7EEA70AB5EE400AB1EEC09A91
:108D1000F1EE10FA7FD40D4601F124020C46002337
:108D200044F8043BA242FBD19FED3E7AF7EE007A75
:108D3000B4EEC79AC1ED007AC1ED047AF1EE10FAF3
:108D4000C1ED087A63D4C7EE898AD0ED009A90ED20
:108D500001AA03AED0ED027AB0EE490A68EEA99AF4
:108D600028EE8AAA68EEA78ACDED039A8DED04AAB3
:108D7000CDED058A63F0F0FFB0EE408AB0EE490A0F
:108D800064F032F8002106A80FABB6EC017A5A184D
:108D900003ABF3EC017A67EE877A8342E2EC017A67
:108DA000F7D10C312429EFD1B7EE006ADFED1E7A3E
:108DB000B1EE4A5A0FABF1EE685A07AAF1EE696AB2
:108DC0008DED08AAB0EE677A8DED0C5A36EE486A42
:108DD000CDED098ACDED075ACDED0D9ACDED0B6A9B
:108DE000CDED0E7ACDED0A7ACDED067A01E0B2EC4A
:108DF000017AF3EC017AD5ED006A66EE277AE8EEA7
:108E0000267AE0EE077AE5EC017AA542EFD118B0B8
:108E1000BDEC068B70BD8DE8030064F065FC9DE839
:108E2000030078E79595E6240000000038B52DEDA5
:108E3000068B90ED010A054690ED007A0C4620EE77
:108E4000000AD0ED027AA7EE070AA7EEA70AB5EE50
:108E5000400AB1EEC0AAF1EE10FA4DD4B6EE008A87
:108E60002AEE088AB0EE480A63F076FFF0EECA7A7E
:108E70009FED247A84ED000AF4EEC77AD5ED009ACE
:108E8000C4ED019A95ED019AF1EE10FA84ED029A83
:108E9000D5ED028AC4ED038A11DDB0EE480A63F015
:108EA000A3FF80EE0A0A69EE809A29EE009A68EE26
:108EB000808AC4ED019A84ED029AC4ED038A2146AA
:108EC000204615F085FBB5EE400AB1EEC08AF1EE02
:108ED00010FA14D4F7EE007A214604F1100387EE5D
:108EE000887AD1ED007A67EE877AE1EC017A9942CF
:108EF000F7D1BDEC068B38BD64F0F6FBAEE764F04D
:108F0000F3FBE7E79595E624B7EE007A9FED926ACA
:108F100010B52DED028BD0ED007A88B090ED045A9B
:108F2000002477EE876AD0ED085A37EE677A05AAF3
:108F3000234676EE857A75EE074A76EEC56A77EEB9
:108F4000A57A37EE457A76EEE56AF4EEC67ACDED8F
:108F5000047A34EEE55A37EE257ACDED056AF1EE66
:108F600010FA8DED065A8DED077A02DDB0EE676AD4
:108F70001C460133042B09D0F2EC017AF4EEC67AD8
:108F8000F1EE10FAF2DC0133042BF5D1A30008AAAC
:108F90001A440B4412ED040AB5EE400AB1EEC08A41
:108FA000F1EE10FA00F1CE80F6EE007A28EE278A74
:108FB00083ED008A84BB90ED077AB5EE006AD0EDB0
:108FC000056AD1ED007A76EEC76A66EE866A86EEAD
:108FD000A77A81ED017A90ED027AD0ED066A76EEFD
:108FE000C76A66EE866A86EEA77A81ED027AD0EDD0
:108FF000036A90ED017A37EE667A27EE067AC7EEBD
:10900000276AC1ED036AF5EEC07AF1EE10FA10D4CA
:1090100008B0BDEC028B10BD012C18D0022C68D01A
:10902000032C3DD0D1ED007AF5EEC07AF1EE10FAC6
:10903000EED501F11003D1ED007AF1EE677AE1ECA3
:10904000017A9942F7D108B0BDEC028B10BDD0ED8A
:10905000077AF5EE005AD0ED056A91ED016A76EED9
:10906000E76A66EEA56AC6EE867AC1ED007A90EDF3
:10907000017AD0ED036A76EE876A66EEA56A86EE1F
:10908000867A81ED027AD0ED066A90ED027A37EEAB
:10909000267A27EE257AC7EE066AC1ED036AB2E7A3
:1090A000D0ED037AB5EE006A90ED017AD1ED036A56
:1090B00037EE677A27EE067AC7EE267AC1ED007A98
:1090C000D0ED065A90ED027A37EE257A27EE067A31
:1090D000C7EE265AC1ED015A90ED077AD0ED055A38
:1090E00037EE257A27EE067A87EE266A81ED026A48
:1090F00089E7D0ED027AF5EE005AD0ED066A91EDDF
:10910000026A76EEE76A66EEA56AC6EE867AC1ED79
:10911000007A90ED017AD0ED036A76EE876A66EE0A
:10912000A56A86EE867A81ED017AD0ED056A90ED2A
:10913000077A37EE267A27EE257AC7EE066AC1ED62
:10914000036A60E703910290019364F0CDFA0399FA
:109150000298019B28E700BF00007AC400000000CD
:109160009FED1B7A20EE077AB7EEC00ABBFE477A66
:109170009FED116BB7EEC77A9FED115BA7EE460B23
:10918000B7EEC00BB7EEC07AB4EEC57BF1EE10FAC5
:109190000BDC9FED0D5BB4EEC57BF1EE10FA03D551
:1091A00037EE060BB7EEC00B704737EE460BB7EE47
:1091B000C00B7047AFF30080182D4454FB211940B9
:1091C000182D4454FB210940182D4454FB2109C09B
:1091D00083F9223E02FB02F32DE9F04F2DED028BC5
:1091E00087B03BB101EB83030C46002544F8045BD8
:1091F0009C42FBD1002A34DD8A46511C00924FF07C
:109200000009890001900AF104000A1F80465346B4
:10921000DDF804B04F469BED008A064645464C46B5
:1092200035ED017AB94576ED017AA7EE678A1ED051
:109230009AED007AC8EE077A48ED017A14F1FF340E
:10924000EED20137009C93440B44BC429044E2DCD4
:10925000019B09F101098A4408440B444C450193E0
:10926000D4D1002007B0BDEC028BBDE8F08FB5EE85
:10927000C08AF1EE10FA09D9B5EE408AF1EEC88A3B
:10928000F1EE10FA08D4C3ED008AD7E7012007B049
:10929000BDEC028BBDE8F08FB0EE480A059004915A
:1092A0000392029364F020FA05980499039A029BB2
:1092B000E9E700BF2DE9F04F8B4602FB02F185B0D4
:1092C000824639B10BEB81015B46002043F8040B69
:1092D0008B42FBD1002A54DD02F1010CB7EE006A8B
:1092E000D9464FF000084FEA8C0CCDF800B001923F
:1092F000ACF104040AEB04030293534693ED007AA5
:1093000008F1010A0099C6EE077A5245C1ED007ACC
:1093100037D063440299019F5546081D8E461E466C
:10932000039345452ADD49467346DFED177AF3EC92
:10933000016A91ED007A21448342E6EEC77AF6D1C4
:10934000D6ED006A08EB07030135A64487EEA67A3E
:109350000BEB8303AA4260446644174483ED007A12
:10936000DFD10099E144039BD0466144009101990B
:1093700011440191029961440291BFE7DFED027A45
:10938000DEE705B0BDE8F08F00000000F0B5059CF9
:10939000002C20DD002502EB8404174647F8045B0F
:1093A000A742FBD14FEA830E01EB0E06002B0DDD29
:1093B000D2ED007A0C460546B4EC017AF5EC016A70
:1093C000A642E6EE877AC2ED007AF5D10432704407
:1093D0009742EBD1F0BDF0BD2DE9F04385B00E9D75
:1093E00004ACDDF834E0002D04E90E00DDF80CC01B
:1093F0002ADD0C9C002204EB8503274647F8042B4A
:10940000BB42FBD1DDF804800025DDF8089008EBB5
:109410008C06BCF1000F13DDD4ED007AA9F1040134
:10942000424651F8043FB2EC017A2B44964200EBDD
:109430008303D3ED006AE6EE877AC4ED007AF0D1BB
:1094400004347544BC42E4D105B0BDE8F08300BFEC
:10945000002BF0B5DDF814E020DD9D000024174658
:10946000531947F8044B9F42FBD101EB8E06BEF126
:10947000000F0EDDD2ED007A0C460346B4EC017A03
:10948000D3ED006A2B44A642E6EE877AC2ED007A5D
:10949000F4D104320430BA42E9D1F0BDF0BD00BFCE
:1094A000002B0BDD00EB8303F0EC017AB1EC017AC9
:1094B000984267EE877AE2EC017AF5D1704700BFF7
:1094C000002B1DDDF0B49F0000241646D31946F88A
:1094D000044B9E42FBD10D1DD2ED007A0B46044693
:1094E000B3EC017AF4EC016A9D42E6EE877AC2EDB4
:1094F000007AF5D10432384404359642ECD1F0BC00
:10950000704700BF2DE9F04385B00D9F04AC002FDC
:1095100004E90E00DDF80CC02EDD0C9E002106EBE8
:109520008702334643F8041B9342FBD1DDF80480E5
:109530000024DDF8089008EB8C0EBCF1000F17DD5D
:10954000A9F10405434655F8041F01FB0742A14257
:1095500000EB820209DCD2ED006A93ED007AD6EDD1
:10956000007AE6EE877AC6ED007A04339E45EAD1AA
:1095700001340436A742E0D105B0BDE8F08300BF56
:109580002DE9F04FDDF82890099C09FB04F5002D2A
:1095900007DD02EB85051446002644F8046BAC4257
:1095A000FBD1099C002C37DD824696464FEA8308A2
:1095B0004FF0000B4FEA890C002B23DD0F460EEB1A
:1095C0000C0554460026B9F1000F0DDD38467246F1
:1095D000B0EC017AD4ED006AD2ED007AE6EE877A3B
:1095E000E2EC017AAA42F3D1013667440434B34273
:1095F000E9D10BF1010B099AC244AE465A45DBD1C1
:10960000BDE8F08F0BF1010B099A0EEB0C05C2447B
:109610005A45AE46D0D1F3E7BDE8F08F2DE9F04FC3
:10962000DDF82880099C08FB04F5002D07DD02EB1E
:1096300085051446002644F8046BAC42FBD1099C16
:10964000002C38DD814694469E004FF0000A4FEA18
:10965000880B002B25DD8E460CEB0B054C460027B6
:10966000B8F1000F0EDD7046624690ED007A30448E
:10967000D4ED006AD2ED007AE6EE877AE2EC017A68
:10968000AA42F2D101370EF1040E0434BB42E7D1F5
:109690000AF1010A099AB144AC465245D9D1BDE854
:1096A000F08F0AF1010A099A0CEB0B05B1445245FF
:1096B000AC46CED1F3E7BDE8F08F00BF84B02DE912
:1096C000F04F85B0DDF858800FAE159D139C08FB58
:1096D00005F586E80E00002D119B019307DD04EBD4
:1096E00085022346002143F8041B9342FBD1159BBE
:1096F000002B38DD0F9B4FF0000C129DA646019AFF
:10970000E2460393AD0003EB8209109B4FEA880BFE
:109710000293019B002B2BDD029B0EEB0B04039E9F
:109720001F1FB8F1000F57F8041F11DD61443246C6
:10973000734600EB810192ED007A2A44D1ED006A74
:10974000D3ED007AE6EE877AE3EC017A9C42F2D11F
:109750000436B145E5D1149B0AF1010AA6469C44A2
:10976000159B5345D5D105B0BDE8F04F04B0704707
:109770000EEB0B04EFE700BF2DE9F04F83B0DDF8EF
:1097800034E0DDF830800EFB03F5002D07DD02EB41
:1097900085051446002644F8046BAC42FBD1002B2F
:1097A0002FDD924684464FEA8E024FF0000B4FEABF
:1097B00088099E000192BEF1000F1ADD0A46544648
:1097C0000027B8F1000F1FDDD4ED007A02EB09008D
:1097D0006546B2EC017AD5ED006A35449042E6EE7A
:1097E000877AC4ED007AF4D1013702460434BE45CD
:1097F000E7D10BF1010B019A0CF1040C5B4592448B
:10980000D9D103B0BDE8F08F013702EB0900043471
:10981000BE450246D5D1ECE784B02DE9F04F85B0C6
:10982000149C0FAF159E139D06FB04F6002E87E8CF
:109830000E00DDF8449007DD05EB86022B46002183
:1098400043F8041B9342FBD1002C38DDA200129B8D
:10985000DDF840A0834602924FEA83080F9A631C0A
:109860000AEB890600244FF0010C03920193DDF806
:109870000CE058460027B9F1000F12DD5246714640
:1098800052F8043BB1EC017A2344D0ED006A9642D1
:1098900005EB8303D3ED007AE6EE877AC3ED007A19
:1098A000EED10137C64404306745E4D1029B0CF188
:1098B000010C9B44159B1C44019B6345D7D105B00B
:1098C000BDE8F04F04B070472DE9F04FDDF824E01B
:1098D0000EFB03F5002D07DD02EB8505144600267F
:1098E00044F8046BAC42FBD1002B2FDD03F10109DE
:1098F0000746144688464FEA890900264FEA8E0A31
:10990000A9F10405BEF1000F0AEB040C15DDC346F6
:10991000D4ED007A584639463246D1ED006A01321C
:10992000B0EC017A29449342E6EE877AC4ED007ADE
:10993000F3DC0434AB446445EAD101364F44644659
:1099400008F10408B342DDD1BDE8F08FBDE8F08F27
:109950002DE9F043DDF81CE003FB0EF5002D07DDDB
:1099600002EB85051446002644F8046BAC42FBD19B
:10997000BEF1000F2FDD174604464FEA830C4FF06F
:109980000009002B1EDD0E463D1D04EB0C08304681
:109990003A46B0EC017AD4ED006AD2ED007AE6EEF8
:1099A000877AE2EC017A9542F3D1043466440435B7
:1099B000A045ECD109F1010967444446CE45E0D108
:1099C000BDE8F08309F1010904EB0C086744CE45BA
:1099D0004446D6D1F4E7BDE8F08300BF2DE9F04F4F
:1099E000099C03FB04F5002D07DD02EB85051446F9
:1099F000002644F8046BA542FBD1099C002C2FDD06
:109A000003F10108914682469E004FEA88084FF014
:109A1000000B002B1BDD8C465546CE4600276446C6
:109A200070463A4694ED007A0132D5ED006A34442E
:109A3000D0ED007A9342E6EE877AE0EC017AF1DC31
:109A400001370EF1040EC4440435BB42E7D10BF1DB
:109A5000010B099AB144B2445A45DAD1BDE8F08FFE
:109A6000BDE8F08F84B02DE9F04FDDF83CE00AAEA0
:109A7000DDF840C00E9D0CFB0EF4002C86E80E00B5
:109A8000DDF8309007DD05EB84022B46002143F81A
:109A9000041B9342FBD1BEF1000F26DDDDF82CA0A4
:109AA00000240D9B0AEB890627464FEA830BDDF85D
:109AB0002880B9F1000F12DD5246414652F8043BAE
:109AC000B1EC017A2344D0ED006A964205EB8303A2
:109AD000D3ED007AE6EE877AC3ED007AEED1013756
